{
  "_format": "hh-sol-artifact-1",
  "contractName": "HelloFHEVM",
  "sourceName": "contracts/HelloFHEVM.sol",
  "abi": [
    {
      "inputs": [],
      "stateMutability": "nonpayable",
      "type": "constructor"
    },
    {
      "anonymous": false,
      "inputs": [
        {
          "indexed": true,
          "internalType": "address",
          "name": "user",
          "type": "address"
        }
      ],
      "name": "CounterReset",
      "type": "event"
    },
    {
      "anonymous": false,
      "inputs": [
        {
          "indexed": true,
          "internalType": "address",
          "name": "user",
          "type": "address"
        },
        {
          "indexed": false,
          "internalType": "string",
          "name": "operation",
          "type": "string"
        }
      ],
      "name": "CounterUpdated",
      "type": "event"
    },
    {
      "anonymous": false,
      "inputs": [
        {
          "indexed": true,
          "internalType": "address",
          "name": "user",
          "type": "address"
        }
      ],
      "name": "PermissionGranted",
      "type": "event"
    },
    {
      "inputs": [
        {
          "internalType": "externalEuint32",
          "name": "encryptedValue",
          "type": "bytes32"
        },
        {
          "internalType": "bytes",
          "name": "inputProof",
          "type": "bytes"
        }
      ],
      "name": "add",
      "outputs": [],
      "stateMutability": "nonpayable",
      "type": "function"
    },
    {
      "inputs": [],
      "name": "decrement",
      "outputs": [],
      "stateMutability": "nonpayable",
      "type": "function"
    },
    {
      "inputs": [],
      "name": "getCounter",
      "outputs": [
        {
          "internalType": "euint32",
          "name": "",
          "type": "bytes32"
        }
      ],
      "stateMutability": "view",
      "type": "function"
    },
    {
      "inputs": [
        {
          "internalType": "address",
          "name": "user",
          "type": "address"
        }
      ],
      "name": "grantPermission",
      "outputs": [],
      "stateMutability": "nonpayable",
      "type": "function"
    },
    {
      "inputs": [],
      "name": "increment",
      "outputs": [],
      "stateMutability": "nonpayable",
      "type": "function"
    },
    {
      "inputs": [
        {
          "internalType": "externalEuint32",
          "name": "encryptedThreshold",
          "type": "bytes32"
        },
        {
          "internalType": "bytes",
          "name": "inputProof",
          "type": "bytes"
        }
      ],
      "name": "isGreaterThan",
      "outputs": [
        {
          "internalType": "euint32",
          "name": "",
          "type": "bytes32"
        }
      ],
      "stateMutability": "nonpayable",
      "type": "function"
    },
    {
      "inputs": [
        {
          "internalType": "externalEuint32",
          "name": "encryptedValue",
          "type": "bytes32"
        },
        {
          "internalType": "bytes",
          "name": "inputProof",
          "type": "bytes"
        }
      ],
      "name": "min",
      "outputs": [
        {
          "internalType": "euint32",
          "name": "",
          "type": "bytes32"
        }
      ],
      "stateMutability": "nonpayable",
      "type": "function"
    },
    {
      "inputs": [
        {
          "internalType": "externalEuint32",
          "name": "encryptedValue",
          "type": "bytes32"
        },
        {
          "internalType": "bytes",
          "name": "inputProof",
          "type": "bytes"
        }
      ],
      "name": "multiply",
      "outputs": [],
      "stateMutability": "nonpayable",
      "type": "function"
    },
    {
      "inputs": [],
      "name": "owner",
      "outputs": [
        {
          "internalType": "address",
          "name": "",
          "type": "address"
        }
      ],
      "stateMutability": "view",
      "type": "function"
    },
    {
      "inputs": [],
      "name": "protocolId",
      "outputs": [
        {
          "internalType": "uint256",
          "name": "",
          "type": "uint256"
        }
      ],
      "stateMutability": "pure",
      "type": "function"
    },
    {
      "inputs": [],
      "name": "reset",
      "outputs": [],
      "stateMutability": "nonpayable",
      "type": "function"
    },
    {
      "inputs": [
        {
          "internalType": "externalEuint32",
          "name": "encryptedValue",
          "type": "bytes32"
        },
        {
          "internalType": "bytes",
          "name": "inputProof",
          "type": "bytes"
        }
      ],
      "name": "subtract",
      "outputs": [],
      "stateMutability": "nonpayable",
      "type": "function"
    }
  ],
  "bytecode": "0x60806040523480156200001157600080fd5b506200016d620000b360408051608081018252600080825260208201819052918101829052606081019190915250604080516080810182527350157cffd6bbfa2dece204a89ec419c23ef5755d815273cd3ab3bd6bcc0c0bf3e27912a92043e817b1cf69602082015273a02cda4ca3a71d7c46997716f4283aa851c2881291810191909152731364cbbf2cdf5032c47d8226a6f6fbd2afcdacac606082015290565b80516000805160206200142183398151915280546001600160a01b03199081166001600160a01b03938416179091556020830151600080516020620014018339815191528054831691841691909117905560408301517f9e7b61f58c47dc699ac88507c4f5bb9f121c03808c5676a8078fe583e46497028054831691841691909117905560608301517f9e7b61f58c47dc699ac88507c4f5bb9f121c03808c5676a8078fe583e46497038054909216921691909117905550565b600180546001600160a01b031916331790556200018b60006200021e565b60008190556200019b9062000239565b50600054600154620001b791906001600160a01b03166200024b565b50336001600160a01b03167f38225799a8c1b8e2a6574d4f16adc5048db3b5c1398b4e63ecf3ba7d9380c65360405162000210906020808252600b908201526a1a5b9a5d1a585b1a5e995960aa1b604082015260600190565b60405180910390a2620003d1565b60006200023363ffffffff8316600462000260565b92915050565b600062000247823062000304565b5090565b600062000259838362000304565b5090919050565b6000805160206200140183398151915254604051639cd07acb60e01b815260009160008051602062001421833981519152916001600160a01b0390911690639cd07acb90620002b6908790879060040162000384565b6020604051808303816000875af1158015620002d6573d6000803e3d6000fd5b505050506040513d601f19601f82011682018060405250810190620002fc9190620003b7565b949350505050565b6000600080516020620014218339815191528054604051635ca4b5b160e11b8152600481018690526001600160a01b03858116602483015292935091169063b9496b6290604401600060405180830381600087803b1580156200036657600080fd5b505af11580156200037b573d6000803e3d6000fd5b50505050505050565b8281526040810160548310620003aa57634e487b7160e01b600052602160045260246000fd5b8260208301529392505050565b600060208284031215620003ca57600080fd5b5051919050565b61102080620003e16000396000f3fe608060405234801561001057600080fd5b50600436106100b45760003560e01c8063d09de08a11610071578063d09de08a1461013e578063d0e5ffb214610146578063d826f88f14610159578063da1f12ab14610161578063f17b3f4c14610169578063f8e166441461017c57600080fd5b80632baeceb7146100b95780632d8e3278146100c3578063439a896b146100d657806361437358146100e95780638ada066e146100fc5780638da5cb5b14610113575b600080fd5b6100c161018f565b005b6100c16100d1366004610e0b565b61022d565b6100c16100e4366004610e34565b6102d0565b6100c16100f7366004610e34565b6103a6565b6000545b6040519081526020015b60405180910390f35b600154610126906001600160a01b031681565b6040516001600160a01b03909116815260200161010a565b6100c1610469565b610100610154366004610e34565b6104fc565b6100c1610579565b612711610100565b610100610177366004610e34565b61062a565b6100c161018a366004610e34565b610689565b600061019b6001610751565b90506101a96000548261076a565b60008190556101b79061079c565b506000546001546101d191906001600160a01b03166107ac565b506101de600054336107ac565b50336001600160a01b0316600080516020610f8b83398151915260405161022290602080825260099082015268191958dc995b595b9d60ba1b604082015260600190565b60405180910390a250565b6001546001600160a01b0316331461028c5760405162461bcd60e51b815260206004820181905260248201527f4f6e6c79206f776e65722063616e206772616e74207065726d697373696f6e7360448201526064015b60405180910390fd5b610298600054826107ac565b506040516001600160a01b038216907fc1f0ea3cc21b72d778e7e9d433c419eabb16edce0afe4468769e055b2e6d49c690600090a250565b60006103128484848080601f0160208091040260200160405190810160405280939291908181526020018383808284376000920191909152506107bf92505050565b90506103206000548261076a565b600081905561032e9061079c565b5060005460015461034891906001600160a01b03166107ac565b50610355600054336107ac565b50336001600160a01b0316600080516020610f8b833981519152604051610398906020808252600890820152671cdd589d1c9858dd60c21b604082015260600190565b60405180910390a250505050565b60006103e88484848080601f0160208091040260200160405190810160405280939291908181526020018383808284376000920191909152506107bf92505050565b90506103f6600054826107cd565b60008190556104049061079c565b5060005460015461041e91906001600160a01b03166107ac565b5061042b600054336107ac565b50336001600160a01b0316600080516020610f8b8339815191526040516103989060208082526003908201526218591960ea1b604082015260600190565b60006104756001610751565b9050610483600054826107cd565b60008190556104919061079c565b506000546001546104ab91906001600160a01b03166107ac565b506104b8600054336107ac565b50336001600160a01b0316600080516020610f8b833981519152604051610222906020808252600990820152681a5b98dc995b595b9d60ba1b604082015260600190565b60008061053f8585858080601f0160208091040260200160405190810160405280939291908181526020018383808284376000920191909152506107bf92505050565b90506000610557610552600054846107ff565b610831565b90506105628161079c565b5061056d81336107ac565b509150505b9392505050565b6001546001600160a01b031633146105ca5760405162461bcd60e51b815260206004820152601460248201527313db9b1e481bdddb995c8818d85b881c995cd95d60621b6044820152606401610283565b6105d46000610751565b60008190556105e29061079c565b506000546001546105fc91906001600160a01b03166107ac565b5060405133907fc2255284b0c3d8506b46764a55feeb08321e2fbd624d8b21e986dc0c3dc37c7390600090a2565b60008061066d8585858080601f0160208091040260200160405190810160405280939291908181526020018383808284376000920191909152506107bf92505050565b905060006105576106806000548461083e565b60005484610870565b60006106cb8484848080601f0160208091040260200160405190810160405280939291908181526020018383808284376000920191909152506107bf92505050565b90506106d960005482610885565b60008190556106e79061079c565b5060005460015461070191906001600160a01b03166107ac565b5061070e600054336107ac565b50336001600160a01b0316600080516020610f8b833981519152604051610398906020808252600890820152676d756c7469706c7960c01b604082015260600190565b60006107648263ffffffff1660046108b7565b92915050565b60008261077e5761077b6000610751565b92505b816107905761078d6000610751565b91505b6105728383600061094c565b60006107a88230610a00565b5090565b60006107b88383610a00565b5090919050565b600061057283836004610a7d565b6000826107e1576107de6000610751565b92505b816107f3576107f06000610751565b91505b61057283836000610b82565b600082610813576108106000610751565b92505b81610825576108226000610751565b91505b61057283836000610be9565b6000610764826004610c50565b6000826108525761084f6000610751565b92505b81610864576108616000610751565b91505b61057283836000610ca2565b600061087d848484610d09565b949350505050565b600082610899576108966000610751565b92505b816108ab576108a86000610751565b91505b61057283836000610da4565b600080516020610fab83398151915254604051639cd07acb60e01b8152600091600080516020610fcb833981519152916001600160a01b0390911690639cd07acb906109099087908790600401610ed2565b6020604051808303816000875af1158015610928573d6000803e3d6000fd5b505050506040513d601f19601f8201168201806040525081019061087d9190610ee6565b60008082156109605750600160f81b610964565b5060005b600080516020610fab833981519152546040516303056db360e31b8152600080516020610fcb833981519152916001600160a01b03169063182b6d98906109b390899089908790600401610eff565b6020604051808303816000875af11580156109d2573d6000803e3d6000fd5b505050506040513d601f19601f820116820180604052508101906109f69190610ee6565b9695505050505050565b6000600080516020610fcb8339815191528054604051635ca4b5b160e11b8152600481018690526001600160a01b03858116602483015292935091169063b9496b6290604401600060405180830381600087803b158015610a6057600080fd5b505af1158015610a74573d6000803e3d6000fd5b50505050505050565b600080516020610fab8339815191525460405163196d0b9b60e01b8152600091600080516020610fcb833981519152916001600160a01b039091169063196d0b9b90610ad3908890339089908990600401610f1f565b6020604051808303816000875af1158015610af2573d6000803e3d6000fd5b505050506040513d601f19601f82011682018060405250810190610b169190610ee6565b8154604051630f8e573b60e21b8152600481018390523360248201529193506001600160a01b031690633e395cec90604401600060405180830381600087803b158015610b6257600080fd5b505af1158015610b76573d6000803e3d6000fd5b50505050509392505050565b6000808215610b965750600160f81b610b9a565b5060005b600080516020610fab8339815191525460405163022f65e760e31b8152600080516020610fcb833981519152916001600160a01b03169063117b2f38906109b390899089908790600401610eff565b6000808215610bfd5750600160f81b610c01565b5060005b600080516020610fab833981519152546040516385362ee760e01b8152600080516020610fcb833981519152916001600160a01b0316906385362ee7906109b390899089908790600401610eff565b600080516020610fab833981519152546040516307227b9160e21b8152600091600080516020610fcb833981519152916001600160a01b0390911690631c89ee44906109099087908790600401610ed2565b6000808215610cb65750600160f81b610cba565b5060005b600080516020610fab83398151915254604051637210768160e01b8152600080516020610fcb833981519152916001600160a01b0316906372107681906109b390899089908790600401610eff565b600080600080516020610fcb8339815191526001810154604051637702dcff60e01b81526004810188905260248101879052604481018690529192506001600160a01b031690637702dcff906064016020604051808303816000875af1158015610d77573d6000803e3d6000fd5b505050506040513d601f19601f82011682018060405250810190610d9b9190610ee6565b95945050505050565b6000808215610db85750600160f81b610dbc565b5060005b600080516020610fab83398151915254604051630afe14ad60e31b8152600080516020610fcb833981519152916001600160a01b0316906357f0a568906109b390899089908790600401610eff565b600060208284031215610e1d57600080fd5b81356001600160a01b038116811461057257600080fd5b600080600060408486031215610e4957600080fd5b83359250602084013567ffffffffffffffff80821115610e6857600080fd5b818601915086601f830112610e7c57600080fd5b813581811115610e8b57600080fd5b876020828501011115610e9d57600080fd5b6020830194508093505050509250925092565b60548110610ece57634e487b7160e01b600052602160045260246000fd5b9052565b828152604081016105726020830184610eb0565b600060208284031215610ef857600080fd5b5051919050565b92835260208301919091526001600160f81b031916604082015260600190565b8481526000602060018060a01b038616602084015260806040840152845180608085015260005b81811015610f625786810183015185820160a001528201610f46565b50600060a0828601015260a0601f19601f83011685010192505050610d9b6060830184610eb056fe38225799a8c1b8e2a6574d4f16adc5048db3b5c1398b4e63ecf3ba7d9380c6539e7b61f58c47dc699ac88507c4f5bb9f121c03808c5676a8078fe583e46497019e7b61f58c47dc699ac88507c4f5bb9f121c03808c5676a8078fe583e4649700a2646970667358221220d79cd64670d82f22b680149e21bc3c7302601c0d4c47c786ea0a224f5d3e416264736f6c634300081800339e7b61f58c47dc699ac88507c4f5bb9f121c03808c5676a8078fe583e46497019e7b61f58c47dc699ac88507c4f5bb9f121c03808c5676a8078fe583e4649700",
  "linkReferences": {},
  "deployedLinkReferences": {}
}