{
  "_format": "hh-sol-artifact-1",
  "contractName": "SecretAuction",
  "sourceName": "contracts/SecretAuction.sol",
  "abi": [
    {
      "inputs": [],
      "stateMutability": "nonpayable",
      "type": "constructor"
    },
    {
      "anonymous": false,
      "inputs": [
        {
          "indexed": true,
          "internalType": "uint32",
          "name": "auctionId",
          "type": "uint32"
        }
      ],
      "name": "AuctionCancelled",
      "type": "event"
    },
    {
      "anonymous": false,
      "inputs": [
        {
          "indexed": true,
          "internalType": "uint32",
          "name": "auctionId",
          "type": "uint32"
        },
        {
          "indexed": false,
          "internalType": "string",
          "name": "title",
          "type": "string"
        },
        {
          "indexed": true,
          "internalType": "address",
          "name": "seller",
          "type": "address"
        },
        {
          "indexed": false,
          "internalType": "uint256",
          "name": "startTime",
          "type": "uint256"
        },
        {
          "indexed": false,
          "internalType": "uint256",
          "name": "endTime",
          "type": "uint256"
        }
      ],
      "name": "AuctionCreated",
      "type": "event"
    },
    {
      "anonymous": false,
      "inputs": [
        {
          "indexed": true,
          "internalType": "uint32",
          "name": "auctionId",
          "type": "uint32"
        },
        {
          "indexed": true,
          "internalType": "address",
          "name": "winner",
          "type": "address"
        },
        {
          "indexed": false,
          "internalType": "uint256",
          "name": "winningAmount",
          "type": "uint256"
        }
      ],
      "name": "AuctionFinalized",
      "type": "event"
    },
    {
      "anonymous": false,
      "inputs": [
        {
          "indexed": true,
          "internalType": "uint32",
          "name": "auctionId",
          "type": "uint32"
        },
        {
          "indexed": true,
          "internalType": "address",
          "name": "bidder",
          "type": "address"
        }
      ],
      "name": "BidPlaced",
      "type": "event"
    },
    {
      "anonymous": false,
      "inputs": [
        {
          "indexed": true,
          "internalType": "uint32",
          "name": "auctionId",
          "type": "uint32"
        },
        {
          "indexed": true,
          "internalType": "address",
          "name": "seller",
          "type": "address"
        },
        {
          "indexed": false,
          "internalType": "uint256",
          "name": "amount",
          "type": "uint256"
        }
      ],
      "name": "PaymentProcessed",
      "type": "event"
    },
    {
      "anonymous": false,
      "inputs": [
        {
          "indexed": true,
          "internalType": "uint32",
          "name": "auctionId",
          "type": "uint32"
        },
        {
          "indexed": true,
          "internalType": "address",
          "name": "bidder",
          "type": "address"
        },
        {
          "indexed": false,
          "internalType": "uint256",
          "name": "amount",
          "type": "uint256"
        }
      ],
      "name": "RefundProcessed",
      "type": "event"
    },
    {
      "inputs": [
        {
          "internalType": "uint32",
          "name": "",
          "type": "uint32"
        },
        {
          "internalType": "uint256",
          "name": "",
          "type": "uint256"
        }
      ],
      "name": "auctionBidders",
      "outputs": [
        {
          "internalType": "address",
          "name": "",
          "type": "address"
        }
      ],
      "stateMutability": "view",
      "type": "function"
    },
    {
      "inputs": [],
      "name": "auctionCount",
      "outputs": [
        {
          "internalType": "uint32",
          "name": "",
          "type": "uint32"
        }
      ],
      "stateMutability": "view",
      "type": "function"
    },
    {
      "inputs": [],
      "name": "auctionHouse",
      "outputs": [
        {
          "internalType": "address",
          "name": "",
          "type": "address"
        }
      ],
      "stateMutability": "view",
      "type": "function"
    },
    {
      "inputs": [
        {
          "internalType": "uint32",
          "name": "",
          "type": "uint32"
        }
      ],
      "name": "auctions",
      "outputs": [
        {
          "internalType": "string",
          "name": "title",
          "type": "string"
        },
        {
          "internalType": "string",
          "name": "description",
          "type": "string"
        },
        {
          "internalType": "address",
          "name": "seller",
          "type": "address"
        },
        {
          "internalType": "euint32",
          "name": "reservePrice",
          "type": "bytes32"
        },
        {
          "internalType": "euint32",
          "name": "highestBid",
          "type": "bytes32"
        },
        {
          "internalType": "address",
          "name": "highestBidder",
          "type": "address"
        },
        {
          "internalType": "uint256",
          "name": "startTime",
          "type": "uint256"
        },
        {
          "internalType": "uint256",
          "name": "endTime",
          "type": "uint256"
        },
        {
          "internalType": "bool",
          "name": "exists",
          "type": "bool"
        },
        {
          "internalType": "bool",
          "name": "finalized",
          "type": "bool"
        },
        {
          "internalType": "bool",
          "name": "cancelled",
          "type": "bool"
        }
      ],
      "stateMutability": "view",
      "type": "function"
    },
    {
      "inputs": [
        {
          "internalType": "address",
          "name": "",
          "type": "address"
        }
      ],
      "name": "balances",
      "outputs": [
        {
          "internalType": "uint256",
          "name": "",
          "type": "uint256"
        }
      ],
      "stateMutability": "view",
      "type": "function"
    },
    {
      "inputs": [
        {
          "internalType": "uint32",
          "name": "",
          "type": "uint32"
        },
        {
          "internalType": "address",
          "name": "",
          "type": "address"
        }
      ],
      "name": "bidders",
      "outputs": [
        {
          "internalType": "euint32",
          "name": "bidAmount",
          "type": "bytes32"
        },
        {
          "internalType": "bool",
          "name": "hasBid",
          "type": "bool"
        },
        {
          "internalType": "bool",
          "name": "refunded",
          "type": "bool"
        }
      ],
      "stateMutability": "view",
      "type": "function"
    },
    {
      "inputs": [
        {
          "internalType": "uint32",
          "name": "auctionId",
          "type": "uint32"
        }
      ],
      "name": "cancelAuction",
      "outputs": [],
      "stateMutability": "nonpayable",
      "type": "function"
    },
    {
      "inputs": [
        {
          "internalType": "string",
          "name": "title",
          "type": "string"
        },
        {
          "internalType": "string",
          "name": "description",
          "type": "string"
        },
        {
          "internalType": "externalEuint32",
          "name": "encryptedReservePrice",
          "type": "bytes32"
        },
        {
          "internalType": "bytes",
          "name": "reserveProof",
          "type": "bytes"
        },
        {
          "internalType": "uint256",
          "name": "durationInSeconds",
          "type": "uint256"
        }
      ],
      "name": "createAuction",
      "outputs": [
        {
          "internalType": "uint32",
          "name": "",
          "type": "uint32"
        }
      ],
      "stateMutability": "nonpayable",
      "type": "function"
    },
    {
      "inputs": [
        {
          "internalType": "uint32",
          "name": "auctionId",
          "type": "uint32"
        }
      ],
      "name": "finalizeAuction",
      "outputs": [],
      "stateMutability": "nonpayable",
      "type": "function"
    },
    {
      "inputs": [
        {
          "internalType": "uint32",
          "name": "auctionId",
          "type": "uint32"
        }
      ],
      "name": "getAuction",
      "outputs": [
        {
          "internalType": "string",
          "name": "title",
          "type": "string"
        },
        {
          "internalType": "string",
          "name": "description",
          "type": "string"
        },
        {
          "internalType": "address",
          "name": "seller",
          "type": "address"
        },
        {
          "internalType": "uint256",
          "name": "startTime",
          "type": "uint256"
        },
        {
          "internalType": "uint256",
          "name": "endTime",
          "type": "uint256"
        },
        {
          "internalType": "bool",
          "name": "finalized",
          "type": "bool"
        },
        {
          "internalType": "bool",
          "name": "cancelled",
          "type": "bool"
        }
      ],
      "stateMutability": "view",
      "type": "function"
    },
    {
      "inputs": [],
      "name": "getAuctionCount",
      "outputs": [
        {
          "internalType": "uint32",
          "name": "count",
          "type": "uint32"
        }
      ],
      "stateMutability": "view",
      "type": "function"
    },
    {
      "inputs": [
        {
          "internalType": "uint32",
          "name": "auctionId",
          "type": "uint32"
        },
        {
          "internalType": "address",
          "name": "bidder",
          "type": "address"
        }
      ],
      "name": "getBidInfo",
      "outputs": [
        {
          "internalType": "euint32",
          "name": "bidAmount",
          "type": "bytes32"
        },
        {
          "internalType": "bool",
          "name": "hasBid",
          "type": "bool"
        }
      ],
      "stateMutability": "view",
      "type": "function"
    },
    {
      "inputs": [
        {
          "internalType": "uint32",
          "name": "auctionId",
          "type": "uint32"
        }
      ],
      "name": "getHighestBid",
      "outputs": [
        {
          "internalType": "euint32",
          "name": "highestBid",
          "type": "bytes32"
        },
        {
          "internalType": "address",
          "name": "highestBidder",
          "type": "address"
        }
      ],
      "stateMutability": "view",
      "type": "function"
    },
    {
      "inputs": [
        {
          "internalType": "uint32",
          "name": "auctionId",
          "type": "uint32"
        }
      ],
      "name": "isAuctionActive",
      "outputs": [
        {
          "internalType": "bool",
          "name": "active",
          "type": "bool"
        }
      ],
      "stateMutability": "view",
      "type": "function"
    },
    {
      "inputs": [
        {
          "internalType": "uint32",
          "name": "auctionId",
          "type": "uint32"
        },
        {
          "internalType": "externalEuint32",
          "name": "encryptedBid",
          "type": "bytes32"
        },
        {
          "internalType": "bytes",
          "name": "bidProof",
          "type": "bytes"
        }
      ],
      "name": "placeBid",
      "outputs": [],
      "stateMutability": "payable",
      "type": "function"
    },
    {
      "inputs": [],
      "name": "platformFeePercent",
      "outputs": [
        {
          "internalType": "uint256",
          "name": "",
          "type": "uint256"
        }
      ],
      "stateMutability": "view",
      "type": "function"
    },
    {
      "inputs": [],
      "name": "protocolId",
      "outputs": [
        {
          "internalType": "uint256",
          "name": "",
          "type": "uint256"
        }
      ],
      "stateMutability": "pure",
      "type": "function"
    },
    {
      "inputs": [
        {
          "internalType": "uint256",
          "name": "newFeePercent",
          "type": "uint256"
        }
      ],
      "name": "setPlatformFee",
      "outputs": [],
      "stateMutability": "nonpayable",
      "type": "function"
    },
    {
      "inputs": [],
      "name": "withdraw",
      "outputs": [],
      "stateMutability": "nonpayable",
      "type": "function"
    }
  ],
  "bytecode": "0x608060405260fa60015534801561001557600080fd5b506101916100b560408051608081018252600080825260208201819052918101829052606081019190915250604080516080810182527350157cffd6bbfa2dece204a89ec419c23ef5755d815273cd3ab3bd6bcc0c0bf3e27912a92043e817b1cf69602082015273a02cda4ca3a71d7c46997716f4283aa851c2881291810191909152731364cbbf2cdf5032c47d8226a6f6fbd2afcdacac606082015290565b80517f9e7b61f58c47dc699ac88507c4f5bb9f121c03808c5676a8078fe583e464970080546001600160a01b03199081166001600160a01b039384161790915560208301517f9e7b61f58c47dc699ac88507c4f5bb9f121c03808c5676a8078fe583e46497018054831691841691909117905560408301517f9e7b61f58c47dc699ac88507c4f5bb9f121c03808c5676a8078fe583e46497028054831691841691909117905560608301517f9e7b61f58c47dc699ac88507c4f5bb9f121c03808c5676a8078fe583e46497038054909216921691909117905550565b600080546001600160a01b03191633179055612717806101b26000396000f3fe6080604052600436106101145760003560e01c80639feb8c88116100a0578063da1f12ab11610064578063da1f12ab146103bd578063daaf4c60146103d2578063ed9152c8146103f2578063fc68e6e114610412578063fd5fee761461042557600080fd5b80639feb8c881461028c578063b102d1b7146102c9578063bfc89680146102fc578063c44e664014610333578063cce16c1f1461035557600080fd5b806327eac914116100e757806327eac914146101d05780632ad71573146101f05780633ccfd60b14610229578063762820041461023e5780638c639a851461027657600080fd5b8063046ce19a1461011957806312e8e2c31461015357806316bdd4111461017557806327e235e314610195575b600080fd5b34801561012557600080fd5b506101396101343660046120a7565b610455565b604080519283529015156020830152015b60405180910390f35b34801561015f57600080fd5b5061017361016e3660046120da565b610491565b005b34801561018157600080fd5b506101736101903660046120f3565b610552565b3480156101a157600080fd5b506101c26101b036600461210e565b60056020526000908152604090205481565b60405190815260200161014a565b3480156101dc57600080fd5b506101736101eb3660046120f3565b610965565b3480156101fc57600080fd5b5060005461021490600160a01b900463ffffffff1681565b60405163ffffffff909116815260200161014a565b34801561023557600080fd5b50610173610b6f565b34801561024a57600080fd5b5061025e610259366004612129565b610c64565b6040516001600160a01b03909116815260200161014a565b34801561028257600080fd5b506101c260015481565b34801561029857600080fd5b506102ac6102a73660046120f3565b610c9c565b604080519283526001600160a01b0390911660208301520161014a565b3480156102d557600080fd5b506102e96102e43660046120f3565b610d0a565b60405161014a9796959493929190612199565b34801561030857600080fd5b5061031c6103173660046120f3565b610ed9565b60405161014a9b9a999897969594939291906121f6565b34801561033f57600080fd5b50600054600160a01b900463ffffffff16610214565b34801561036157600080fd5b506103a06103703660046120a7565b60036020908152600092835260408084209091529082529020805460019091015460ff8082169161010090041683565b60408051938452911515602084015215159082015260600161014a565b3480156103c957600080fd5b506127116101c2565b3480156103de57600080fd5b506102146103ed3660046122bc565b611053565b3480156103fe57600080fd5b5060005461025e906001600160a01b031681565b610173610420366004612367565b6114d3565b34801561043157600080fd5b506104456104403660046120f3565b61197b565b604051901515815260200161014a565b63ffffffff821660009081526003602090815260408083206001600160a01b03851684529091529020805460019091015460ff165b9250929050565b6000546001600160a01b031633146105035760405162461bcd60e51b815260206004820152602a60248201527f4f6e6c792061756374696f6e20686f7573652063616e20706572666f726d20746044820152693434b99030b1ba34b7b760b11b60648201526084015b60405180910390fd5b6103e881111561054d5760405162461bcd60e51b81526020600482015260156024820152744665652063616e6e6f74206578636565642031302560581b60448201526064016104fa565b600155565b63ffffffff8116600090815260026020526040902060080154819060ff1661058c5760405162461bcd60e51b81526004016104fa906123c1565b63ffffffff8216600090815260026020526040902060070154829042116105f55760405162461bcd60e51b815260206004820152601760248201527f41756374696f6e206973207374696c6c2061637469766500000000000000000060448201526064016104fa565b63ffffffff811660009081526002602052604090206008015462010000900460ff161561065b5760405162461bcd60e51b8152602060048201526014602482015273105d58dd1a5bdb881a5cc818d85b98d95b1b195960621b60448201526064016104fa565b63ffffffff83166000908152600260205260409020600801548390610100900460ff16156106c75760405162461bcd60e51b8152602060048201526019602482015278105d58dd1a5bdb88185b1c9958591e48199a5b985b1a5e9959603a1b60448201526064016104fa565b63ffffffff8416600090815260026020819052604090912001546001600160a01b031633148061070157506000546001600160a01b031633145b61075f5760405162461bcd60e51b815260206004820152602960248201527f4f6e6c792073656c6c6572206f722061756374696f6e20686f7573652063616e6044820152682066696e616c697a6560b81b60648201526084016104fa565b63ffffffff8416600090815260026020526040902060088101805461ff001916610100179055600501546001600160a01b0316801561091557600060016000612710600154846107af9190612407565b6107b9919061241e565b905060006107c78285612440565b63ffffffff8a166000908152600260208181526040808420909201546001600160a01b0316835260059052812080549293508392909190610809908490612453565b9091555050600080546001600160a01b031681526005602052604081208054849290610836908490612453565b90915550506001600160a01b03851660009081526005602052604081208054869290610863908490612440565b909155505063ffffffff89166000818152600260208181526040928390209091015491518481526001600160a01b0390921692917f334765db12b91fb61f6d3b83803509a2c267c411fd6336f21e276ce5d23d0198910160405180910390a3846001600160a01b03168963ffffffff167f30e5247d0379443895e5ba57715bedb510316a8afe45c543535a86f84de244038660405161090491815260200190565b60405180910390a350505050610954565b60405160008082529063ffffffff8716907f30e5247d0379443895e5ba57715bedb510316a8afe45c543535a86f84de244039060200160405180910390a35b61095e8582611b2b565b5050505050565b63ffffffff8116600090815260026020526040902060080154819060ff1661099f5760405162461bcd60e51b81526004016104fa906123c1565b63ffffffff82166000908152600260205260409020600801548290610100900460ff1615610a0b5760405162461bcd60e51b8152602060048201526019602482015278105d58dd1a5bdb88185b1c9958591e48199a5b985b1a5e9959603a1b60448201526064016104fa565b63ffffffff8316600090815260026020819052604090912001546001600160a01b0316331480610a4557506000546001600160a01b031633145b610aa15760405162461bcd60e51b815260206004820152602760248201527f4f6e6c792073656c6c6572206f722061756374696f6e20686f7573652063616e6044820152660818d85b98d95b60ca1b60648201526084016104fa565b63ffffffff8316600090815260026020526040902060070154421115610b095760405162461bcd60e51b815260206004820181905260248201527f43616e6e6f742063616e63656c2061667465722061756374696f6e20656e647360448201526064016104fa565b63ffffffff83166000908152600260205260409020600801805462ffff00191662010100179055610b3983611a29565b60405163ffffffff8416907fad89b1a93b84e04709cc13eb5469ade31920faba03966c8ae081cf3a014ddbae90600090a2505050565b3360009081526005602052604090205480610bc55760405162461bcd60e51b81526020600482015260166024820152754e6f2062616c616e636520746f20776974686472617760501b60448201526064016104fa565b336000818152600560205260408082208290555190919083908381818185875af1925050503d8060008114610c16576040519150601f19603f3d011682016040523d82523d6000602084013e610c1b565b606091505b5050905080610c605760405162461bcd60e51b815260206004820152601160248201527015da5d1a191c985dd85b0819985a5b1959607a1b60448201526064016104fa565b5050565b60046020528160005260406000208181548110610c8057600080fd5b6000918252602090912001546001600160a01b03169150829050565b63ffffffff81166000908152600260205260408120600801548190839060ff16610cd85760405162461bcd60e51b81526004016104fa906123c1565b50505063ffffffff166000908152600260205260409020600481015460059091015490916001600160a01b0390911690565b63ffffffff811660009081526002602052604081206008015460609182918190819081908190889060ff16610d515760405162461bcd60e51b81526004016104fa906123c1565b63ffffffff89166000908152600260208190526040909120908101546006820154600783015460088401548454859460018601946001600160a01b03909116939092909160ff610100830481169262010000900416908790610db290612466565b80601f0160208091040260200160405190810160405280929190818152602001828054610dde90612466565b8015610e2b5780601f10610e0057610100808354040283529160200191610e2b565b820191906000526020600020905b815481529060010190602001808311610e0e57829003601f168201915b50505050509650858054610e3e90612466565b80601f0160208091040260200160405190810160405280929190818152602001828054610e6a90612466565b8015610eb75780601f10610e8c57610100808354040283529160200191610eb7565b820191906000526020600020905b815481529060010190602001808311610e9a57829003601f168201915b5050505050955098509850985098509850985098505050919395979092949650565b600260205260009081526040902080548190610ef490612466565b80601f0160208091040260200160405190810160405280929190818152602001828054610f2090612466565b8015610f6d5780601f10610f4257610100808354040283529160200191610f6d565b820191906000526020600020905b815481529060010190602001808311610f5057829003601f168201915b505050505090806001018054610f8290612466565b80601f0160208091040260200160405190810160405280929190818152602001828054610fae90612466565b8015610ffb5780601f10610fd057610100808354040283529160200191610ffb565b820191906000526020600020905b815481529060010190602001808311610fde57829003601f168201915b50505060028401546003850154600486015460058701546006880154600789015460089099015497986001600160a01b03958616989497509295509316929160ff80821691610100810482169162010000909104168b565b60008761109a5760405162461bcd60e51b81526020600482015260156024820152745469746c652063616e6e6f7420626520656d70747960581b60448201526064016104fa565b600082116110ea5760405162461bcd60e51b815260206004820152601960248201527f4475726174696f6e206d75737420626520706f7369746976650000000000000060448201526064016104fa565b62093a8082111561113d5760405162461bcd60e51b815260206004820152601d60248201527f4475726174696f6e2063616e6e6f74206578636565642037206461797300000060448201526064016104fa565b60008054600160a01b900463ffffffff1681601461115a8361249a565b91906101000a81548163ffffffff021916908363ffffffff160217905550905060004290506000848261118d9190612453565b905060006111d18989898080601f016020809104026020016040519081016040528093929190818152602001838380828437600092019190915250611c4792505050565b90506040518061016001604052808e8e8080601f016020809104026020016040519081016040528093929190818152602001838380828437600092019190915250505090825250604080516020601f8f018190048102820181019092528d815291810191908e908e908190840183828082843760009201829052509385525050336020840152506040820184905260609091019061126e90611c5e565b8152600060208083018290526040808401889052606084018790526001608085015260a0840183905260c090930182905263ffffffff881682526002905220815181906112bb9082612523565b50602082015160018201906112d09082612523565b50604082810151600283810180546001600160a01b03199081166001600160a01b039485161790915560608601516003808701919091556080870151600487015560a0870151600587018054909316941693909317905560c0850151600685015560e0850151600785015561010080860151600890950180546101208801516101409098015161ffff1990911696151561ff001916969096179615159091029590951762ff0000191662010000941515949094029390931790935563ffffffff87166000908152602092909252902001546113aa90611c71565b5063ffffffff84166000908152600260205260409020600401546113cd90611c71565b5063ffffffff84166000908152600260205260409020600301546113f19033611c81565b5063ffffffff84166000908152600260205260409020600401546114159033611c81565b5063ffffffff8416600090815260026020526040812060030154905461144491906001600160a01b0316611c81565b5063ffffffff8416600090815260026020526040812060040154905461147391906001600160a01b0316611c81565b50336001600160a01b03168463ffffffff167f8601df3e8782180c2e62ef5829d3cc33dfa2ca81978cc81393738c93d497e3858f8f87876040516114ba94939291906125e3565b60405180910390a350919b9a5050505050505050505050565b63ffffffff8416600090815260026020526040902060080154849060ff1661150d5760405162461bcd60e51b81526004016104fa906123c1565b63ffffffff851660009081526002602052604090206006015485904210156115775760405162461bcd60e51b815260206004820152601760248201527f41756374696f6e20686173206e6f74207374617274656400000000000000000060448201526064016104fa565b63ffffffff81166000908152600260205260409020600701544211156115d35760405162461bcd60e51b8152602060048201526011602482015270105d58dd1a5bdb881a185cc8195b991959607a1b60448201526064016104fa565b63ffffffff811660009081526002602052604090206008015462010000900460ff16156116395760405162461bcd60e51b8152602060048201526014602482015273105d58dd1a5bdb881a5cc818d85b98d95b1b195960621b60448201526064016104fa565b63ffffffff8616600090815260026020819052604090912001546001600160a01b031633036116aa5760405162461bcd60e51b815260206004820181905260248201527f53656c6c65722063616e6e6f7420626964206f6e206f776e2061756374696f6e60448201526064016104fa565b600034116116f35760405162461bcd60e51b8152602060048201526016602482015275135d5cdd081cd95b9908115512081dda5d1a08189a5960521b60448201526064016104fa565b60006117358686868080601f016020809104026020016040519081016040528093929190818152602001838380828437600092019190915250611c4792505050565b63ffffffff8816600090815260036020908152604080832033845290915290206001015490915060ff166117995763ffffffff871660009081526004602090815260408220805460018101825590835291200180546001600160a01b031916331790555b6040805160608101825282815260016020808301828152600084860181815263ffffffff8e16808352600385528783203384528552878320965187559251959094018054945115156101000261ff00199615159690961661ffff199095169490941794909417909255908252600290529081206004015461181b908390611c94565b63ffffffff89166000908152600260205260409020600401549091506118449082908490611cc6565b63ffffffff891660009081526002602090815260408083206004810194909455600590930180546001600160a01b03191633908117909155600382528383209083529052205461189390611c71565b5063ffffffff88166000908152600360209081526040808320338085529252909120546118bf91611c81565b5063ffffffff8816600090815260036020908152604080832033845290915281205490546118f691906001600160a01b0316611c81565b5063ffffffff881660009081526002602052604090206004015461191990611c71565b503360009081526005602052604081208054349290611939908490612453565b9091555050604051339063ffffffff8a16907f49410c64e1dec27c55e6734c4532ceccea63816835b24a0eecff5b1a416be9ff90600090a35050505050505050565b63ffffffff8116600090815260026020526040812060080154829060ff166119b55760405162461bcd60e51b81526004016104fa906123c1565b63ffffffff831660009081526002602052604090206006015442108015906119f5575063ffffffff83166000908152600260205260409020600701544211155b8015611a20575063ffffffff831660009081526002602052604090206008015462010000900460ff16155b91505b50919050565b63ffffffff81166000908152600460205260408120905b8154811015611b26576000828281548110611a5d57611a5d612623565b600091825260208083209091015463ffffffff871683526003825260408084206001600160a01b039092168085529190925291206001015490915060ff61010090910416611b1d5763ffffffff841660008181526003602090815260408083206001600160a01b038616808552908352818420600101805461ff00191661010017905560058352928190205490519081529192917f970b3f55f49ad7fd94ded3ed68b529cf8bd9bc734580862b2df3a5f93e586f8c910160405180910390a35b50600101611a40565b505050565b63ffffffff82166000908152600460205260408120905b8154811015611c41576000828281548110611b5f57611b5f612623565b6000918252602090912001546001600160a01b03908116915084168114801590611bbb575063ffffffff851660009081526003602090815260408083206001600160a01b0385168452909152902060010154610100900460ff16155b15611c385763ffffffff851660008181526003602090815260408083206001600160a01b038616808552908352818420600101805461ff00191661010017905560058352928190205490519081529192917f970b3f55f49ad7fd94ded3ed68b529cf8bd9bc734580862b2df3a5f93e586f8c910160405180910390a35b50600101611b42565b50505050565b6000611c5583836004611cdd565b90505b92915050565b6000611c588263ffffffff166004611df4565b6000611c7d8230611ea3565b5090565b6000611c8d8383611ea3565b5090919050565b600082611ca857611ca56000611c5e565b92505b81611cba57611cb76000611c5e565b91505b611c5583836000611f20565b6000611cd3848484611fdc565b90505b9392505050565b7f9e7b61f58c47dc699ac88507c4f5bb9f121c03808c5676a8078fe583e46497015460405163196d0b9b60e01b81526000916000805160206126c2833981519152916001600160a01b039091169063196d0b9b90611d4590889033908990899060040161265b565b6020604051808303816000875af1158015611d64573d6000803e3d6000fd5b505050506040513d601f19601f82011682018060405250810190611d889190612694565b8154604051630f8e573b60e21b8152600481018390523360248201529193506001600160a01b031690633e395cec90604401600060405180830381600087803b158015611dd457600080fd5b505af1158015611de8573d6000803e3d6000fd5b50505050509392505050565b7f9e7b61f58c47dc699ac88507c4f5bb9f121c03808c5676a8078fe583e464970154604051639cd07acb60e01b81526000916000805160206126c2833981519152916001600160a01b0390911690639cd07acb90611e5890879087906004016126ad565b6020604051808303816000875af1158015611e77573d6000803e3d6000fd5b505050506040513d601f19601f82011682018060405250810190611e9b9190612694565b949350505050565b60006000805160206126c28339815191528054604051635ca4b5b160e11b8152600481018690526001600160a01b03858116602483015292935091169063b9496b6290604401600060405180830381600087803b158015611f0357600080fd5b505af1158015611f17573d6000803e3d6000fd5b50505050505050565b6000808215611f345750600160f81b611f38565b5060005b60006000805160206126c283398151915260018101546040516385362ee760e01b815260048101899052602481018890526001600160f81b0319851660448201529192506001600160a01b0316906385362ee7906064016020604051808303816000875af1158015611fae573d6000803e3d6000fd5b505050506040513d601f19601f82011682018060405250810190611fd29190612694565b9695505050505050565b6000806000805160206126c28339815191526001810154604051637702dcff60e01b81526004810188905260248101879052604481018690529192506001600160a01b031690637702dcff906064016020604051808303816000875af115801561204a573d6000803e3d6000fd5b505050506040513d601f19601f8201168201806040525081019061206e9190612694565b95945050505050565b803563ffffffff8116811461208b57600080fd5b919050565b80356001600160a01b038116811461208b57600080fd5b600080604083850312156120ba57600080fd5b6120c383612077565b91506120d160208401612090565b90509250929050565b6000602082840312156120ec57600080fd5b5035919050565b60006020828403121561210557600080fd5b611c5582612077565b60006020828403121561212057600080fd5b611c5582612090565b6000806040838503121561213c57600080fd5b61214583612077565b946020939093013593505050565b6000815180845260005b818110156121795760208185018101518683018201520161215d565b506000602082860101526020601f19601f83011685010191505092915050565b60e0815260006121ac60e083018a612153565b82810360208401526121be818a612153565b6001600160a01b03989098166040840152505060608101949094526080840192909252151560a0830152151560c09091015292915050565b600061016080835261220a8184018f612153565b9050828103602084015261221e818e612153565b6001600160a01b039c8d166040850152606084019b909b52505060808101979097529490971660a086015260c085019290925260e084015215156101008301529215156101208201529115156101409092019190915292915050565b60008083601f84011261228c57600080fd5b50813567ffffffffffffffff8111156122a457600080fd5b60208301915083602082850101111561048a57600080fd5b60008060008060008060008060a0898b0312156122d857600080fd5b883567ffffffffffffffff808211156122f057600080fd5b6122fc8c838d0161227a565b909a50985060208b013591508082111561231557600080fd5b6123218c838d0161227a565b909850965060408b0135955060608b013591508082111561234157600080fd5b5061234e8b828c0161227a565b999c989b50969995989497949560800135949350505050565b6000806000806060858703121561237d57600080fd5b61238685612077565b935060208501359250604085013567ffffffffffffffff8111156123a957600080fd5b6123b58782880161227a565b95989497509550505050565b602080825260169082015275105d58dd1a5bdb88191bd95cc81b9bdd08195e1a5cdd60521b604082015260600190565b634e487b7160e01b600052601160045260246000fd5b8082028115828204841417611c5857611c586123f1565b60008261243b57634e487b7160e01b600052601260045260246000fd5b500490565b81810381811115611c5857611c586123f1565b80820180821115611c5857611c586123f1565b600181811c9082168061247a57607f821691505b602082108103611a2357634e487b7160e01b600052602260045260246000fd5b600063ffffffff8083168181036124b3576124b36123f1565b6001019392505050565b634e487b7160e01b600052604160045260246000fd5b601f821115611b26576000816000526020600020601f850160051c810160208610156124fc5750805b601f850160051c820191505b8181101561251b57828155600101612508565b505050505050565b815167ffffffffffffffff81111561253d5761253d6124bd565b6125518161254b8454612466565b846124d3565b602080601f831160018114612586576000841561256e5750858301515b600019600386901b1c1916600185901b17855561251b565b600085815260208120601f198616915b828110156125b557888601518255948401946001909101908401612596565b50858210156125d35787850151600019600388901b60f8161c191681555b5050505050600190811b01905550565b606081528360608201528385608083013760006080858301015260006080601f19601f870116830101905083602083015282604083015295945050505050565b634e487b7160e01b600052603260045260246000fd5b6054811061265757634e487b7160e01b600052602160045260246000fd5b9052565b8481526001600160a01b038416602082015260806040820181905260009061268590830185612153565b905061206e6060830184612639565b6000602082840312156126a657600080fd5b5051919050565b82815260408101611cd6602083018461263956fe9e7b61f58c47dc699ac88507c4f5bb9f121c03808c5676a8078fe583e4649700a2646970667358221220e81b96093a304527e02e918bcfb5d6beea932efe23019267f37d2a4083ca593364736f6c63430008180033",
  "linkReferences": {},
  "deployedLinkReferences": {}
}