{
  "_format": "hh-sol-artifact-1",
  "contractName": "PrivateVoting",
  "sourceName": "contracts/PrivateVoting.sol",
  "abi": [
    {
      "inputs": [],
      "stateMutability": "nonpayable",
      "type": "constructor"
    },
    {
      "anonymous": false,
      "inputs": [
        {
          "indexed": true,
          "internalType": "uint32",
          "name": "proposalId",
          "type": "uint32"
        },
        {
          "indexed": false,
          "internalType": "string",
          "name": "description",
          "type": "string"
        },
        {
          "indexed": false,
          "internalType": "uint256",
          "name": "startTime",
          "type": "uint256"
        },
        {
          "indexed": false,
          "internalType": "uint256",
          "name": "endTime",
          "type": "uint256"
        }
      ],
      "name": "ProposalCreated",
      "type": "event"
    },
    {
      "anonymous": false,
      "inputs": [
        {
          "indexed": true,
          "internalType": "uint32",
          "name": "proposalId",
          "type": "uint32"
        },
        {
          "indexed": false,
          "internalType": "uint32",
          "name": "yesVotes",
          "type": "uint32"
        },
        {
          "indexed": false,
          "internalType": "uint32",
          "name": "noVotes",
          "type": "uint32"
        }
      ],
      "name": "ResultsRevealed",
      "type": "event"
    },
    {
      "anonymous": false,
      "inputs": [
        {
          "indexed": true,
          "internalType": "address",
          "name": "voter",
          "type": "address"
        },
        {
          "indexed": true,
          "internalType": "uint32",
          "name": "proposalId",
          "type": "uint32"
        }
      ],
      "name": "VoteCast",
      "type": "event"
    },
    {
      "anonymous": false,
      "inputs": [
        {
          "indexed": true,
          "internalType": "address",
          "name": "voter",
          "type": "address"
        }
      ],
      "name": "VoterAuthorized",
      "type": "event"
    },
    {
      "anonymous": false,
      "inputs": [
        {
          "indexed": true,
          "internalType": "address",
          "name": "voter",
          "type": "address"
        }
      ],
      "name": "VoterRevoked",
      "type": "event"
    },
    {
      "inputs": [],
      "name": "admin",
      "outputs": [
        {
          "internalType": "address",
          "name": "",
          "type": "address"
        }
      ],
      "stateMutability": "view",
      "type": "function"
    },
    {
      "inputs": [
        {
          "internalType": "address",
          "name": "voter",
          "type": "address"
        }
      ],
      "name": "authorizeVoter",
      "outputs": [],
      "stateMutability": "nonpayable",
      "type": "function"
    },
    {
      "inputs": [
        {
          "internalType": "address",
          "name": "",
          "type": "address"
        }
      ],
      "name": "authorizedVoters",
      "outputs": [
        {
          "internalType": "bool",
          "name": "",
          "type": "bool"
        }
      ],
      "stateMutability": "view",
      "type": "function"
    },
    {
      "inputs": [
        {
          "internalType": "address[]",
          "name": "voters",
          "type": "address[]"
        }
      ],
      "name": "batchAuthorizeVoters",
      "outputs": [],
      "stateMutability": "nonpayable",
      "type": "function"
    },
    {
      "inputs": [
        {
          "internalType": "uint32",
          "name": "proposalId",
          "type": "uint32"
        },
        {
          "internalType": "externalEbool",
          "name": "encryptedVote",
          "type": "bytes32"
        },
        {
          "internalType": "bytes",
          "name": "voteProof",
          "type": "bytes"
        }
      ],
      "name": "castVote",
      "outputs": [],
      "stateMutability": "nonpayable",
      "type": "function"
    },
    {
      "inputs": [
        {
          "internalType": "string",
          "name": "description",
          "type": "string"
        },
        {
          "internalType": "uint256",
          "name": "durationInSeconds",
          "type": "uint256"
        }
      ],
      "name": "createProposal",
      "outputs": [
        {
          "internalType": "uint32",
          "name": "",
          "type": "uint32"
        }
      ],
      "stateMutability": "nonpayable",
      "type": "function"
    },
    {
      "inputs": [
        {
          "internalType": "uint32",
          "name": "proposalId",
          "type": "uint32"
        },
        {
          "internalType": "uint256",
          "name": "additionalSeconds",
          "type": "uint256"
        }
      ],
      "name": "extendVoting",
      "outputs": [],
      "stateMutability": "nonpayable",
      "type": "function"
    },
    {
      "inputs": [
        {
          "internalType": "uint32",
          "name": "proposalId",
          "type": "uint32"
        }
      ],
      "name": "getProposal",
      "outputs": [
        {
          "internalType": "string",
          "name": "description",
          "type": "string"
        },
        {
          "internalType": "uint256",
          "name": "startTime",
          "type": "uint256"
        },
        {
          "internalType": "uint256",
          "name": "endTime",
          "type": "uint256"
        },
        {
          "internalType": "bool",
          "name": "resultsRevealed",
          "type": "bool"
        }
      ],
      "stateMutability": "view",
      "type": "function"
    },
    {
      "inputs": [],
      "name": "getProposalCount",
      "outputs": [
        {
          "internalType": "uint32",
          "name": "count",
          "type": "uint32"
        }
      ],
      "stateMutability": "view",
      "type": "function"
    },
    {
      "inputs": [
        {
          "internalType": "uint32",
          "name": "proposalId",
          "type": "uint32"
        }
      ],
      "name": "getVoteCounts",
      "outputs": [
        {
          "internalType": "euint32",
          "name": "yesVotes",
          "type": "bytes32"
        },
        {
          "internalType": "euint32",
          "name": "noVotes",
          "type": "bytes32"
        }
      ],
      "stateMutability": "view",
      "type": "function"
    },
    {
      "inputs": [
        {
          "internalType": "address",
          "name": "",
          "type": "address"
        },
        {
          "internalType": "uint32",
          "name": "",
          "type": "uint32"
        }
      ],
      "name": "hasVoted",
      "outputs": [
        {
          "internalType": "bool",
          "name": "",
          "type": "bool"
        }
      ],
      "stateMutability": "view",
      "type": "function"
    },
    {
      "inputs": [
        {
          "internalType": "address",
          "name": "voter",
          "type": "address"
        }
      ],
      "name": "isAuthorizedVoter",
      "outputs": [
        {
          "internalType": "bool",
          "name": "authorized",
          "type": "bool"
        }
      ],
      "stateMutability": "view",
      "type": "function"
    },
    {
      "inputs": [
        {
          "internalType": "uint32",
          "name": "proposalId",
          "type": "uint32"
        }
      ],
      "name": "isVotingOpen",
      "outputs": [
        {
          "internalType": "bool",
          "name": "isOpen",
          "type": "bool"
        }
      ],
      "stateMutability": "view",
      "type": "function"
    },
    {
      "inputs": [
        {
          "internalType": "uint32",
          "name": "proposalId",
          "type": "uint32"
        }
      ],
      "name": "markResultsRevealed",
      "outputs": [],
      "stateMutability": "nonpayable",
      "type": "function"
    },
    {
      "inputs": [],
      "name": "proposalCount",
      "outputs": [
        {
          "internalType": "uint32",
          "name": "",
          "type": "uint32"
        }
      ],
      "stateMutability": "view",
      "type": "function"
    },
    {
      "inputs": [
        {
          "internalType": "uint32",
          "name": "",
          "type": "uint32"
        }
      ],
      "name": "proposals",
      "outputs": [
        {
          "internalType": "string",
          "name": "description",
          "type": "string"
        },
        {
          "internalType": "euint32",
          "name": "yesVotes",
          "type": "bytes32"
        },
        {
          "internalType": "euint32",
          "name": "noVotes",
          "type": "bytes32"
        },
        {
          "internalType": "uint256",
          "name": "startTime",
          "type": "uint256"
        },
        {
          "internalType": "uint256",
          "name": "endTime",
          "type": "uint256"
        },
        {
          "internalType": "bool",
          "name": "exists",
          "type": "bool"
        },
        {
          "internalType": "bool",
          "name": "resultsRevealed",
          "type": "bool"
        }
      ],
      "stateMutability": "view",
      "type": "function"
    },
    {
      "inputs": [],
      "name": "protocolId",
      "outputs": [
        {
          "internalType": "uint256",
          "name": "",
          "type": "uint256"
        }
      ],
      "stateMutability": "pure",
      "type": "function"
    },
    {
      "inputs": [
        {
          "internalType": "address",
          "name": "voter",
          "type": "address"
        }
      ],
      "name": "revokeVoter",
      "outputs": [],
      "stateMutability": "nonpayable",
      "type": "function"
    }
  ],
  "bytecode": "0x608060405234801561001057600080fd5b5061018c6100b060408051608081018252600080825260208201819052918101829052606081019190915250604080516080810182527350157cffd6bbfa2dece204a89ec419c23ef5755d815273cd3ab3bd6bcc0c0bf3e27912a92043e817b1cf69602082015273a02cda4ca3a71d7c46997716f4283aa851c2881291810191909152731364cbbf2cdf5032c47d8226a6f6fbd2afcdacac606082015290565b80517f9e7b61f58c47dc699ac88507c4f5bb9f121c03808c5676a8078fe583e464970080546001600160a01b03199081166001600160a01b039384161790915560208301517f9e7b61f58c47dc699ac88507c4f5bb9f121c03808c5676a8078fe583e46497018054831691841691909117905560408301517f9e7b61f58c47dc699ac88507c4f5bb9f121c03808c5676a8078fe583e46497028054831691841691909117905560608301517f9e7b61f58c47dc699ac88507c4f5bb9f121c03808c5676a8078fe583e46497038054909216921691909117905550565b600080546001600160a01b0319163390811782558152600360205260409020805460ff19166001179055611c67806101c56000396000f3fe608060405234801561001057600080fd5b50600436106101165760003560e01c8063b1653556116100a2578063da35c66411610071578063da35c664146102bd578063e65436f3146102d4578063f0f96277146102e7578063f851a440146102fa578063fd47b3681461032557600080fd5b8063b165355614610259578063c08cc02d1461026c578063d93a7e8714610281578063da1f12ab146102ad57600080fd5b806339a6d5e0116100e957806339a6d5e0146101aa5780634f2b6c44146101bd578063604458f8146101fb57806366acfa4a1461020e578063a947eeb71461023157600080fd5b8063114f00ab1461011b5780632a1fac16146101475780632a4910ab1461015c57806335facf7814610182575b600080fd5b61012e610129366004611647565b610338565b60405161013e94939291906116a8565b60405180910390f35b61015a6101553660046116f0565b610452565b005b61016f61016a366004611647565b610519565b60405161013e979695949392919061170b565b61019561019036600461179c565b6105e2565b60405163ffffffff909116815260200161013e565b61015a6101b8366004611647565b6108ed565b6101eb6101cb3660046117e8565b600260209081526000928352604080842090915290825290205460ff1681565b604051901515815260200161013e565b61015a61020936600461181b565b610a15565b6101eb61021c3660046116f0565b60036020526000908152604090205460ff1681565b61024461023f366004611647565b610b7f565b6040805192835260208301919091520161013e565b61015a610267366004611890565b610be3565b600054600160a01b900463ffffffff16610195565b6101eb61028f3660046116f0565b6001600160a01b031660009081526003602052604090205460ff1690565b604051612711815260200161013e565b60005461019590600160a01b900463ffffffff1681565b61015a6102e23660046118ea565b610f7f565b6101eb6102f5366004611647565b6110c4565b60005461030d906001600160a01b031681565b6040516001600160a01b03909116815260200161013e565b61015a6103333660046116f0565b611147565b63ffffffff81166000908152600160205260408120600501546060919081908190859060ff166103835760405162461bcd60e51b815260040161037a90611914565b60405180910390fd5b63ffffffff86166000908152600160205260409020600381015460048201546005830154835484939291610100900460ff169084906103c19061194b565b80601f01602080910402602001604051908101604052809291908181526020018280546103ed9061194b565b801561043a5780601f1061040f5761010080835404028352916020019161043a565b820191906000526020600020905b81548152906001019060200180831161041d57829003601f168201915b50505050509350955095509550955050509193509193565b6000546001600160a01b0316331461047c5760405162461bcd60e51b815260040161037a9061197f565b6000546001600160a01b03908116908216036104d05760405162461bcd60e51b815260206004820152601360248201527221b0b73737ba103932bb37b5b29030b236b4b760691b604482015260640161037a565b6001600160a01b038116600081815260036020526040808220805460ff19169055517f8bd8971f91a5fea9c7ec31a7cd7a7cc467c75c932ea4bc73be16a0253d79eb879190a250565b6001602052600090815260409020805481906105349061194b565b80601f01602080910402602001604051908101604052809291908181526020018280546105609061194b565b80156105ad5780601f10610582576101008083540402835291602001916105ad565b820191906000526020600020905b81548152906001019060200180831161059057829003601f168201915b505050600184015460028501546003860154600487015460059097015495969295919450925060ff8082169161010090041687565b600080546001600160a01b0316331461060d5760405162461bcd60e51b815260040161037a9061197f565b6000821161065d5760405162461bcd60e51b815260206004820152601960248201527f4475726174696f6e206d75737420626520706f73697469766500000000000000604482015260640161037a565b826106aa5760405162461bcd60e51b815260206004820152601b60248201527f4465736372697074696f6e2063616e6e6f7420626520656d7074790000000000604482015260640161037a565b60008054600160a01b900463ffffffff168160146106c7836119d7565b91906101000a81548163ffffffff021916908363ffffffff16021790555090506000429050600084826106fa91906119fa565b604080516101006020601f8b01819004028201810190925260e081018981529293509182918a908a9081908501838280828437600092018290525093855250506020909201915061074a9061120b565b8152602001610759600061120b565b8152602080820185905260408083018590526001606084018190526000608090940184905263ffffffff8816845290915290208151819061079a9082611a73565b506020828101516001808401919091556040808501516002850155606085015160038501556080850151600485015560a08501516005909401805460c09096015115156101000261ff00199515159590951661ffff19909616959095179390931790935563ffffffff861660009081529083905220015461081a90611224565b5063ffffffff831660009081526001602052604090206002015461083d90611224565b5063ffffffff8316600090815260016020819052604082200154905461086c91906001600160a01b0316611234565b5063ffffffff8316600090815260016020526040812060020154905461089b91906001600160a01b0316611234565b508263ffffffff167feeaa28302adf89157ed389e00dbc9f484d3b8a386de85a9a684b34f732789ebd888885856040516108d89493929190611b33565b60405180910390a250909150505b9392505050565b6000546001600160a01b031633146109175760405162461bcd60e51b815260040161037a9061197f565b63ffffffff8116600090815260016020526040902060050154819060ff166109515760405162461bcd60e51b815260040161037a90611914565b63ffffffff8216600090815260016020526040902060040154829042116109b15760405162461bcd60e51b81526020600482015260146024820152732b37ba34b7339034b99039ba34b6361037b832b760611b604482015260640161037a565b63ffffffff83166000818152600160209081526040808320600501805461ff0019166101001790558051838152918201929092527fc1f84ae7f508caee9294831dfa19e99852a1a53fff923d279048431098b78806910160405180910390a2505050565b6000546001600160a01b03163314610a3f5760405162461bcd60e51b815260040161037a9061197f565b60005b81811015610b7a576000838383818110610a5e57610a5e611b73565b9050602002016020810190610a7391906116f0565b6001600160a01b031603610ac15760405162461bcd60e51b8152602060048201526015602482015274496e76616c696420766f746572206164647265737360581b604482015260640161037a565b600160036000858585818110610ad957610ad9611b73565b9050602002016020810190610aee91906116f0565b6001600160a01b031681526020810191909152604001600020805460ff1916911515919091179055828282818110610b2857610b28611b73565b9050602002016020810190610b3d91906116f0565b6001600160a01b03167f0ca65a9f1f88bd7257ac852d1062853358f81cdc56f9634dcbeed6090f8dfb4360405160405180910390a2600101610a42565b505050565b63ffffffff81166000908152600160205260408120600501548190839060ff16610bbb5760405162461bcd60e51b815260040161037a90611914565b50505063ffffffff166000908152600160208190526040909120908101546002909101549091565b3360009081526003602052604090205460ff16610c3b5760405162461bcd60e51b81526020600482015260166024820152754e6f7420617574686f72697a656420746f20766f746560501b604482015260640161037a565b63ffffffff8416600090815260016020526040902060050154849060ff16610c755760405162461bcd60e51b815260040161037a90611914565b63ffffffff85166000908152600160205260409020600301548590421015610cd85760405162461bcd60e51b8152602060048201526016602482015275159bdd1a5b99c81a185cc81b9bdd081cdd185c9d195960521b604482015260640161037a565b63ffffffff8116600090815260016020526040902060040154421115610d335760405162461bcd60e51b815260206004820152601060248201526f159bdd1a5b99c81a185cc8195b99195960821b604482015260640161037a565b33600090815260026020908152604080832063ffffffff8a168452909152902054869060ff1615610da65760405162461bcd60e51b815260206004820152601e60248201527f416c726561647920766f746564206f6e20746869732070726f706f73616c0000604482015260640161037a565b6000610de88787878080601f01602080910402602001604051908101604052809392919081815260200183838082843760009201919091525061124792505050565b90506000610df6600161120b565b9050610e37600160008b63ffffffff1663ffffffff16815260200190815260200160002060010154610e328484610e2d600061120b565b611255565b61126a565b63ffffffff8a166000908152600160208190526040822090810192909255600290910154610e7491610e32908590610e6e9061120b565b85611255565b63ffffffff8a16600090815260016020819052604090912060028101929092550154610e9f90611224565b5063ffffffff8916600090815260016020526040902060020154610ec290611224565b5063ffffffff89166000908152600160208190526040822001549054610ef191906001600160a01b0316611234565b5063ffffffff89166000908152600160205260408120600201549054610f2091906001600160a01b0316611234565b5033600081815260026020908152604080832063ffffffff8e168085529252808320805460ff19166001179055519092917f391a7b78c54cf1179cce0101b07523b80306999c65a05b5b882dbbfd1d93d8f191a3505050505050505050565b6000546001600160a01b03163314610fa95760405162461bcd60e51b815260040161037a9061197f565b63ffffffff8216600090815260016020526040902060050154829060ff16610fe35760405162461bcd60e51b815260040161037a90611914565b63ffffffff83166000908152600160205260409020600401544211156110425760405162461bcd60e51b8152602060048201526014602482015273159bdd1a5b99c8185b1c9958591e48195b99195960621b604482015260640161037a565b600082116110925760405162461bcd60e51b815260206004820152601a60248201527f457874656e73696f6e206d75737420626520706f736974697665000000000000604482015260640161037a565b63ffffffff8316600090815260016020526040812060040180548492906110ba9084906119fa565b9091555050505050565b63ffffffff8116600090815260016020526040812060050154829060ff166110fe5760405162461bcd60e51b815260040161037a90611914565b63ffffffff8316600090815260016020526040902060030154421080159061113e575063ffffffff83166000908152600160205260409020600401544211155b91505b50919050565b6000546001600160a01b031633146111715760405162461bcd60e51b815260040161037a9061197f565b6001600160a01b0381166111bf5760405162461bcd60e51b8152602060048201526015602482015274496e76616c696420766f746572206164647265737360581b604482015260640161037a565b6001600160a01b038116600081815260036020526040808220805460ff19166001179055517f0ca65a9f1f88bd7257ac852d1062853358f81cdc56f9634dcbeed6090f8dfb439190a250565b600061121e8263ffffffff16600461129c565b92915050565b60006112308230611343565b5090565b60006112408383611343565b5090919050565b60006108e6838360006113c0565b60006112628484846114d7565b949350505050565b60008261127e5761127b600061120b565b92505b816112905761128d600061120b565b91505b6108e683836000611572565b7f9e7b61f58c47dc699ac88507c4f5bb9f121c03808c5676a8078fe583e464970154604051639cd07acb60e01b8152600091600080516020611c12833981519152916001600160a01b0390911690639cd07acb906113009087908790600401611bab565b6020604051808303816000875af115801561131f573d6000803e3d6000fd5b505050506040513d601f19601f820116820180604052508101906112629190611bbf565b6000600080516020611c128339815191528054604051635ca4b5b160e11b8152600481018690526001600160a01b03858116602483015292935091169063b9496b6290604401600060405180830381600087803b1580156113a357600080fd5b505af11580156113b7573d6000803e3d6000fd5b50505050505050565b7f9e7b61f58c47dc699ac88507c4f5bb9f121c03808c5676a8078fe583e46497015460405163196d0b9b60e01b8152600091600080516020611c12833981519152916001600160a01b039091169063196d0b9b90611428908890339089908990600401611bd8565b6020604051808303816000875af1158015611447573d6000803e3d6000fd5b505050506040513d601f19601f8201168201806040525081019061146b9190611bbf565b8154604051630f8e573b60e21b8152600481018390523360248201529193506001600160a01b031690633e395cec90604401600060405180830381600087803b1580156114b757600080fd5b505af11580156114cb573d6000803e3d6000fd5b50505050509392505050565b600080600080516020611c128339815191526001810154604051637702dcff60e01b81526004810188905260248101879052604481018690529192506001600160a01b031690637702dcff906064016020604051808303816000875af1158015611545573d6000803e3d6000fd5b505050506040513d601f19601f820116820180604052508101906115699190611bbf565b95945050505050565b60008082156115865750600160f81b61158a565b5060005b6000600080516020611c12833981519152600181015460405163022f65e760e31b815260048101899052602481018890526001600160f81b0319851660448201529192506001600160a01b03169063117b2f38906064016020604051808303816000875af1158015611600573d6000803e3d6000fd5b505050506040513d601f19601f820116820180604052508101906116249190611bbf565b9695505050505050565b803563ffffffff8116811461164257600080fd5b919050565b60006020828403121561165957600080fd5b6108e68261162e565b6000815180845260005b818110156116885760208185018101518683018201520161166c565b506000602082860101526020601f19601f83011685010191505092915050565b6080815260006116bb6080830187611662565b60208301959095525060408101929092521515606090910152919050565b80356001600160a01b038116811461164257600080fd5b60006020828403121561170257600080fd5b6108e6826116d9565b60e08152600061171e60e083018a611662565b602083019890985250604081019590955260608501939093526080840191909152151560a0830152151560c090910152919050565b60008083601f84011261176557600080fd5b50813567ffffffffffffffff81111561177d57600080fd5b60208301915083602082850101111561179557600080fd5b9250929050565b6000806000604084860312156117b157600080fd5b833567ffffffffffffffff8111156117c857600080fd5b6117d486828701611753565b909790965060209590950135949350505050565b600080604083850312156117fb57600080fd5b611804836116d9565b91506118126020840161162e565b90509250929050565b6000806020838503121561182e57600080fd5b823567ffffffffffffffff8082111561184657600080fd5b818501915085601f83011261185a57600080fd5b81358181111561186957600080fd5b8660208260051b850101111561187e57600080fd5b60209290920196919550909350505050565b600080600080606085870312156118a657600080fd5b6118af8561162e565b935060208501359250604085013567ffffffffffffffff8111156118d257600080fd5b6118de87828801611753565b95989497509550505050565b600080604083850312156118fd57600080fd5b6119068361162e565b946020939093013593505050565b60208082526017908201527f50726f706f73616c20646f6573206e6f74206578697374000000000000000000604082015260600190565b600181811c9082168061195f57607f821691505b60208210810361114157634e487b7160e01b600052602260045260246000fd5b60208082526022908201527f4f6e6c792061646d696e2063616e20706572666f726d2074686973206163746960408201526137b760f11b606082015260800190565b634e487b7160e01b600052601160045260246000fd5b600063ffffffff8083168181036119f0576119f06119c1565b6001019392505050565b8082018082111561121e5761121e6119c1565b634e487b7160e01b600052604160045260246000fd5b601f821115610b7a576000816000526020600020601f850160051c81016020861015611a4c5750805b601f850160051c820191505b81811015611a6b57828155600101611a58565b505050505050565b815167ffffffffffffffff811115611a8d57611a8d611a0d565b611aa181611a9b845461194b565b84611a23565b602080601f831160018114611ad65760008415611abe5750858301515b600019600386901b1c1916600185901b178555611a6b565b600085815260208120601f198616915b82811015611b0557888601518255948401946001909101908401611ae6565b5085821015611b235787850151600019600388901b60f8161c191681555b5050505050600190811b01905550565b606081528360608201528385608083013760006080858301015260006080601f19601f870116830101905083602083015282604083015295945050505050565b634e487b7160e01b600052603260045260246000fd5b60548110611ba757634e487b7160e01b600052602160045260246000fd5b9052565b828152604081016108e66020830184611b89565b600060208284031215611bd157600080fd5b5051919050565b8481526001600160a01b0384166020820152608060408201819052600090611c0290830185611662565b90506115696060830184611b8956fe9e7b61f58c47dc699ac88507c4f5bb9f121c03808c5676a8078fe583e4649700a264697066735822122081c0216f0f7cdef41cb80f78da840212bed4b62067db951a92e0e5532478e33b64736f6c63430008180033",
  "linkReferences": {},
  "deployedLinkReferences": {}
}